{
  "contractName": "MyContract",
  "abi": [
    {
      "constant": false,
      "inputs": [
        {
          "internalType": "uint256",
          "name": "_data",
          "type": "uint256"
        }
      ],
      "name": "setData",
      "outputs": [],
      "payable": false,
      "stateMutability": "nonpayable",
      "type": "function"
    },
    {
      "constant": true,
      "inputs": [],
      "name": "getData",
      "outputs": [
        {
          "internalType": "uint256",
          "name": "",
          "type": "uint256"
        }
      ],
      "payable": false,
      "stateMutability": "view",
      "type": "function"
    }
  ],
  "bytecode": "0x608060405234801561001057600080fd5b5060c68061001f6000396000f3fe6080604052348015600f57600080fd5b506004361060325760003560e01c80633bc5de301460375780635b4b73a9146053575b600080fd5b603d607e565b6040518082815260200191505060405180910390f35b607c60048036036020811015606757600080fd5b81019080803590602001909291905050506087565b005b60008054905090565b806000819055505056fea265627a7a72315820d696c4bba3023d06d55035923d4ad861b9874cd0c4ede58ba718e5bad4069b5864736f6c63430005100032",
  "source": "pragma solidity ^0.5.16;\n\ncontract MyContract{\n    uint data;\n\n    // we will call this fucntion after deploying smart contract on public testnet\n    // function to change the variable\n    function setData(uint _data) external {\n        data = _data;\n    }\n\n    // function to get the value of variable\n    function getData() external view returns (uint) {\n        return data;\n    }\n}",
  "sourcePath": "/Users/ammar/Desktop/Blockchain/YT_Tutorials/Web3/3_mainnet_deploy/contracts/MyContract.sol",
  "compiler": {
    "name": "solc",
    "version": "0.5.16+commit.9c3226ce.Emscripten.clang"
  },
  "schemaVersion": "3.4.3",
  "updatedAt": "2021-09-25T04:39:53.320Z",
  "networkType": "ethereum",
  "devdoc": {
    "methods": {}
  },
  "userdoc": {
    "methods": {}
  }
}